:020000040800F2
:1000000048080020B90100084D1E0008451E0008E0
:10001000491E0008BF1B0008FF2600080000000062
:10002000000000000000000000000000A9210008FE
:100030002D1C000800000000D31E000895220008B7
:10004000D3010008D3010008D3010008D301000840
:10005000D3010008D3010008D3010008D301000830
:10006000D3010008D3010008D3010008D301000820
:10007000D3010008D3010008D3010008D301000810
:10008000D3010008D3010008D3010008D301000800
:10009000D3010008D3010008D3010008D3010008F0
:1000A000D3010008D3010008D3010008D3010008E0
:1000B000D3010008D3010008D3010008D3010008D0
:1000C000D3010008D3010008D3010008D3010008C0
:1000D000D30100086D240008D3010008D3010008F3
:1000E000D3010008D3010008D301000800F002F892
:1000F00000F053F80AA090E8000C82448344AAF16F
:100100000107DA4501D100F048F8AFF2090EBAE86C
:100110000F0013F0010F18BFFB1A43F0010318473B
:100120007436000094360000103A24BF78C878C1B5
:10013000FAD8520724BF30C830C144BF04680C60ED
:10014000704700000023002400250026103A28BF35
:1001500078C1FBD8520728BF30C148BF0B60704739
:10016000662903F0E481642900F05480752900F0C9
:100170005180002070471FB500F036FD04000020BC
:10018000002102F01BFE401C60600020002102F0F4
:10019000FFFDE0601FBD10B510BD00F0EFFF114680
:1001A000FFF7E9FF02F0D4FB01F016F803B4FFF704
:1001B000F2FF03BC02F0CCFA094880470948004727
:1001C000FEE7FEE7FEE7FEE7FEE7FEE7FEE7FEE707
:1001D000FEE7FEE704480549054A064B7047000064
:1001E00099220008ED00000848020020480800207D
:1001F0004804002048040020704700000FB4044960
:1002000010B503AA029800F099FC10BC5DF814FB2D
:10021000180000202DE9F0410646002410687529D9
:10022000314616A510D0AFF30080002802DA404214
:1002300013A507E031688A0701D512A502E0490736
:1002400004D511A5012401E0AFF3008000210A22AA
:1002500006F1240709E0B0FBF2FCB0FBF2F302FB6D
:100260001C00303078541846491C0028F3D123462E
:100270002A463046BDE8F04100F0DFB9000000003A
:100280002D0000002B000000200000002DE9F05F91
:10029000894604464FF0000ADFF874B1FB44C0F809
:1002A00020A02046E1688847002874D0252806D081
:1002B000D4E901219047206A401C2062F1E7002622
:1002C0005F462046E16888472028054607DB312D38
:1002D00005D2781910F8200C08B10643F1E7B007F1
:1002E00001D526F00406C4F81CA00027C4F818A005
:1002F0002A2D09D0284602F024FA38B304EB8708E7
:10030000303DC8F8185019E059F8041B204604EB9A
:1003100087029161E1688847012F054618D1E0699D
:10032000002820DA26F020061DE0D8F8180000EB9F
:10033000800005EB40003038C8F818002046E1681E
:100340008847054602F0FDF90028EED1012F0AD0BA
:100350002E2D08D12046E16888477F1C0546022FD4
:1003600046F02006C4DBA069002803DA404246F0CC
:100370000106A061F00701D026F010066C2D0BD00D
:10038000682D09D04C2D39D06A2D35D0742D35D03B
:100390007A2D33D016E038E0E1682F4620468847B2
:1003A000B842054609D16C2F26D04FF48060E16831
:1003B000064320468847054604E06C2F1AD04FF4C8
:1003C000807006430DB3A5F14100192802D82035ED
:1003D00046F400664A462946204626604E46FFF708
:1003E000BFFE80B101280BD0F61D26F0070000F1FA
:1003F000080956E74020E4E78020D8E70020D6E748
:1004000006F104094DE7284652E7206ABDE8F09F4F
:10041000723300000FB400B58DB010A9099000919F
:100420000B904FF0FF300A9000200C900648784463
:100430000690064878446A4607900F9909A800F08C
:10044000A3FB0DB05DF814FB770700008F070000D9
:100450002DE9FF5F1D464FF0FF3B91464FF000082E
:100460005F46D5E90146A96901987F1C8847296A3A
:10047000824688470028F6D1BAF1FF3F0CD0002E03
:1004800024F4C06419DD600614D5BAF12B0F09D02D
:10049000BAF12D0F0ED103E0584604B0BDE8F09F2D
:1004A00044F48064A96901987F1C8847761E8246BF
:1004B000002E02DDBAF1300F03D0B9F1000F26D0C3
:1004C00032E0A969761E01987F1C44F400748847C5
:1004D000002E824605DDBAF1780F06D0BAF1580F2A
:1004E00003D0B9F1000F10D01EE0B9F1000F02D017
:1004F000B9F1100F18D1A969761E01987F1C24F458
:10050000007488478246102002E0082000E00A209C
:10051000814609E0A96908FB0908761E01987F1C3D
:1005200044F4007488478246002E05DD4946504653
:1005300000F016FB0028EDDAE96901988847A0056C
:1005400002D46FF00100A8E7E00725D1600613D5BB
:10055000600502D5C8F1000000E0404629680A1D88
:100560002A600968220501D5087015E0220701D527
:10057000088011E008600FE02868011D296000680C
:10058000210502D580F8008006E0210702D5A0F8F9
:10059000008001E0C0F8008038467EE74FF0013C63
:1005A00050F8042B51F8043B9A4221D1A2EB0C03E2
:1005B000934313EACC1317D150F8042B51F8043BA2
:1005C0009A4215D1A2EB0C03934313EACC130BD13F
:1005D00050F8042B51F8043B9A4209D1A2EB0C03CA
:1005E000934313EACC13DBD04FF00000704700BFF9
:1005F000D01A01BAB1FA81F101F0180122FA01F022
:10060000CB40C1F12001DBB2C0B2C01A2CFA01F319
:10061000D11A914311EAC311E6D170477047704770
:100620007047704710B500F0E3FA006810BD10B5D0
:10063000044600F0DDFA046010BD2DE9F0470D46D8
:1006400099469246044600F124080168880604D5BC
:10065000E06921F01001216000E00120A84201DDE5
:10066000471B00E00027A1697A1902EB0900081A6C
:10067000A0612078C00602D42046AFF30080002697
:1006800008E0D4E901211AF806009047206A401CCE
:10069000761C20624E45F4DB2078C0060AD5204641
:1006A000AFF3008006E0D4E9012130209047206AB2
:1006B000401C2062381EA7F10107F4DC07E0D4E9F2
:1006C000012118F805009047206A401C2062281E6E
:1006D000A5F10105F3DC2046AFF300802078000689
:1006E00002D50220BDE8F0870120FBE770472DE925
:1006F000FF4F0C461E464FF0FF378BB0D2E900018A
:10070000DDF860800A908A46C1F30A5505B93D4676
:10071000002108464FF00000BAF1000F00F440003D
:1007200005DA00EB80004FF4400101EA50004FEA87
:100730009059B9F1010F00DDB9460A9850EA4A0014
:100740000ED044F61050A5F2FF3545432F14B8F1F2
:10075000000F1ED07542291E1EDDC9F100021CE0EB
:10076000B8F1010F4FF0000001D0302103E0F24357
:1007700005E02154401CB042FBDB30460022002142
:1007800021540B99C1F80880C1E900200FB0BDE8E1
:10079000F08FBD1B6D1CDEE74A4600DA694206A8F1
:1007A00000F072FC06AB93E8070003AB83E8070098
:1007B00050460A9900F019FD8DE80700A0F5005099
:1007C0001F3800900398002D0ADD42F21F014A46AF
:1007D0000844002303A90390684600F082FF09E063
:1007E000A0F500504A461F38002303A9039068462D
:1007F00000F08CFF8DE807000004000C03D04FF0E0
:10080000FF30410800E01046B8F1000F03D000228D
:10081000009215461EE0751E05D400F0EDF9303249
:1008200062556D1EF9D5B3460122084302D000225D
:100830007F1C04E02078302801D100227F1E002A8E
:10084000099784D01DE0112D07DA00F0D5F9303278
:1008500062556D1C50EA0102F5D1084302D00098A0
:10086000C8B10EE00021681E05E0235C625C6354A1
:100870002254401E491C8142F7DBAB46A81B401E98
:100880000990002004F80B000B98099AC0F8088022
:10089000C0E9002B7AE711264FF0000857E72DE951
:1008A000F04F88460446D21D22F0070191B0D1E9ED
:1008B0000001CDE90A0101F024FF02460B98C00FA8
:1008C00001D02D2007E02068810701D52B2002E010
:1008D000202101EAC000032A099001D0072A05DB84
:1008E00003464146204600F0D5F90BE1207880060A
:1008F00001D5E06900E00620B8F1650F814606D019
:10090000B8F1660F18D0B8F1670F70D131E0002050
:10091000B9F1110F009001DB112301E009F101038E
:100920000AAA01A90CA8FFF7E2FEDDE90C70002677
:1009300009F10105834647E001204B4600904FF046
:1009400000470AAA01A90CA8FFF7D1FEDDE90DB006
:100950000C995D46002610B909F101000D18B9EB9C
:10096000050003D4C0F1FF3609F10105A5EB09002C
:100970002BE0B9F1010F01DA4FF001090020B9F1C4
:10098000110F0090484601DD112300E003460AAA3A
:1009900001A90CA8FFF7ABFEDDE90C704D4600265F
:1009A0008346207800070AD4AB4500DA5D4601A8EB
:1009B000012D04DD411911F8011C302907D04F45E4
:1009C00002DA17F1040F04DA012082460FE06D1EEF
:1009D000EEE7002F02DCED1B3E4403E0781CA8424A
:1009E00000DD7D1CB81B00F1010A4FF000472078A4
:1009F000000703D4AA4501DB4FF0FF3A0021B7F10D
:100A0000004F0DF143088DF8431024D002202B2312
:100A1000002F01DA7F422D230A21021EA0F10100DE
:100A200000DC5FB197FBF1FC97FBF1F201FB1C7C52
:100A300017460CF1300C08F801CDEEE7A8F10100E3
:100A400003702188090501D5452100E06521A0F149
:100A5000010800F8011C09980FA9A1EB0807FF1D68
:100A600000B10120411901EBEA70A1693844081A6C
:100A7000401EA0612078C00602D42046AFF300805B
:100A8000099828B1D4E901219047206A401C2062CE
:100A90002078C00622D52046AFF300801EE0002E4D
:100AA00004DBB34502DD01A8805D00E03020D4E91D
:100AB00001219047206A401C2062761CAAF10100A7
:100AC0005FEA000A0AD100F08FF8C0680168405C54
:100AD000D4E901219047206A401C2062281EA5F11C
:100AE0000105DCDC07E0D4E9012118F8010B90478F
:100AF000206A401C2062381EA7F10107F3DC204663
:100B0000AFF30080032011B041E6000001694A1CE8
:100B100002610878704700B58FB0CDE9013100213E
:100B2000059105497944CDE9031011466846FFF760
:100B3000ADFB0FB000BD0000E5FFFFFF074B70B538
:100B40000D467B44FFF7E7FF0446284600F00EFB06
:100B500010B14FF0FF3070BD204670BD5F1C00002B
:100B60003A2800D2303820F02002412A01D3A2F1E5
:100B70003700884201D34FF0FF30704702681144BC
:100B80001378016018467047D16005497944516176
:100B900004497944116200211161114600F0BAB88C
:100BA000EDFFFFFFED000000426842B1016811F85F
:100BB000013B23B1521EC0E90012184670470121C3
:100BC000C160881E704742685AB1C368016843B962
:100BD00083688B4205D0491E521CC0E900120020D8
:100BE00070474FF0FF307047004870470802002000
:100BF00000487047E801002030B5B0F10A024FEA22
:100C0000900E71F100034EEA817EB0EB0E0061EBB5
:100C100091014FEA101E4EEA017E10EB0E0041EBEF
:100C200011114FEA102E4EEA016E10EB0E0041EB4F
:100C300011214FEA104E4EEA014E10EB0E0041EB2F
:100C40001141401841F100014FEAD00040EA4170E3
:100C50004FEAD10110EB80054FEA810444EA907419
:100C600044EB01046D1944EB0404521BA3414FF003
:100C7000000348BF0A3200D530BD401C41F10001DD
:100C800030BD10B5044600F09FFA0068005D00F02A
:100C9000010010BD2DE9F0411F46044603260168FE
:100CA000072A01F4006004DB08B116A505E016A5CB
:100CB00003E008B115A500E015A521F010002060A3
:100CC000A069C01EA0610FB1401EA0612046AFF315
:100CD00000804FB1D4E9012138469047206A401C7A
:100CE0002062C01C206206E0206AFAE7D4E90121F4
:100CF00015F8010B9047761EF8D22046AFF300801E
:100D0000BDE8F0814E414E006E616E00494E4600D6
:100D1000696E66002DE9F34F4FF0000A0C46564607
:100D20008DB001200C9001F10C000B9062690B98C2
:100D300001219047051E2DD0252D2CD0216A8847F2
:100D4000C0B162690B9801219047216A8847002849
:100D5000F7D16269411E0B98904700E0761CA169AB
:100D60000D988847216A88470028F7D1E1690D98D6
:100D70008847DBE7A1690D988847A842074601D15B
:100D8000761CD3E7E1690D9888477F1C02D1BAF140
:100D9000000F6FD06BE162690B9800273D46394622
:100DA00090472A2804D162690B98012190470125B8
:100DB000DFF8D08262690B9801219047A0F13001E1
:100DC0000A290AD24745E5DC07EB870100EB41071A
:100DD000303FDFD445F01005ECE7E90601D46FF0B1
:100DE00000476C280AD04C2814D0682815D06A28EF
:100DF0000DD074281CD07A281AD01DE062690B9897
:100E0000012190476C2802D045F0040514E045F01C
:100E100002050DE045F020050AE062690B9801210A
:100E20009047682802D045F0080505E045F40065C4
:100E300062690B9801219047C4E9015765283DD0AC
:100E400019DC58287AD00CDC452837D004DC25285A
:100E500026D041289ED131E046282FD0472899D16D
:100E60002CE05B2877D0612828D063287CD06428C8
:100E700023D15AE0F6E06F2848D008DC66281DD060
:100E800067281BD0692821D06E2816D127E070284A
:100E900045D0732868D0752847D078280DD14DE00B
:100EA000A1690D988847252805463FF469AFE16997
:100EB0000D9888476D1C3FF46AAFD8E00D99234622
:100EC0006A466FF00100AFF30080C5E045F04000D6
:100ED00023464FF000026060A80736D43EE0E807E2
:100EE0007FF447AF2068011D21600068290501D506
:100EF00006701BE7290701D5068017E7A90703D568
:100F0000F117C0E9006111E706600FE745F0400006
:100F100023464FF008026060A80716D41EE040F692
:100F20000E0125EA0100606016E045F0400023460E
:100F30004FF00A026060A80707D40FE045F04000B8
:100F40006060A80708D5234610220D996FF00100B4
:100F5000AFF3008080E007E0102223460D996FF088
:100F60000100FFF775FA77E04FF0000963284F465C
:100F7000C8464B46CB4602D05B2806D038E0E80690
:100F800001D40120A060012732E06269D4F80CB0DE
:100F90000B98012190475E2807D14FF0010949467F
:100FA0006269D4F80CB00B989047216939B90021D7
:100FB0000A4603AB43F82120491C0829FADBD8B3C1
:100FC000216949B308F1010862690B980121904732
:100FD0005D28F4D1B9F1000F09D0002003A951F820
:100FE0002020D24341F82020401C0828F7DB03AB27
:100FF0002069002820794FEA40701ED05B462246C7
:10100000CDF80080CDE901970D9900286FF001001F
:1010100020DAAFF300801FE0C11703AA00EBD16113
:101020004B1121F01F0102EB8302411A13680120CA
:10103000884003431360C7E719E00D992246002852
:101040006FF00100009702DAAFF3008004E0AFF325
:10105000008001E0AFF3008000280ADA401C06D1CE
:101060000C9820B14FF0FF300FB0BDE8F08F504624
:10107000FAE7E90701D10AF1010A064400200C90C1
:1010800054E60000CCCCCC0C2DE9F0478146164646
:101090008AB0354878440DC88DE80D003248784450
:1010A000801C03AC0DC884E80D0041F69B30084459
:1010B000372190FBF1F290FBF1F5A5F1800501FBE2
:1010C00012041B3C02D56442012000E00020DFF83E
:1010D00098A080460027FA44AAF1BE0A0EE0E00775
:1010E0000AD03246684607EB470101230AEB81012B
:1010F00000F00CFB8DE8070064107F1C002CEED183
:10110000194F7F44AE3F19E0E80715D007EB0410F4
:101110000DF1180A90E80E008AE80E00C068F0424F
:1011200001D1981908903246012306A903A800F0BE
:10113000EDFA03AB83E807006D10641C002DE3D1CA
:101140004FF0010332466946B8F1000F03A802D000
:1011500000F0C7FA01E000F0D9FAC9E90001C9F8C6
:1011600008200AB0BDE8F08748260000007B00F0A8
:101170008000704700487047E80100207546FFF77F
:10118000F9FFAE4605006946534620F00700854644
:1011900018B020B5FFF71EF8BDE820404FF000065C
:1011A0004FF000074FF000084FF0000B21F007014F
:1011B000AC46ACE8C009ACE8C009ACE8C009ACE892
:1011C000C0098D467047000010B5FFF70DFD001DEA
:1011D00010BD00BFE91B000010B50446AFF300804E
:1011E0002046BDE81040FEF7E1BF5FEA400C08BFB3
:1011F00091F0000F4FEA8C234FEAC12243EA51518C
:101200004FEA1C5018BF00F5F0404FEA300018BFFD
:1012100041F000415FEA6C5C00F02980BCF1FF3FC7
:1012200008BF40F080407047130C06BF12044FF017
:10123000100C4FF0000C130E04BF12020CF1080C3E
:10124000130F04BF12010CF1040C930F04BF9200A2
:101250000CF1020CD30F04BF52000CF1010C11462B
:101260004FF00002A0F11F00A0EB0C00704711F03E
:10127000004F08BF704731F000413FF4D5AF0B0C71
:1012800006BF09044FF0100C4FF0000C0B0E04BF0A
:1012900009020CF1080C0B0F04BF09010CF1040C3E
:1012A0008B0F04BF89000CF1020CCB0F04BF490067
:1012B0000CF1010CCCF12003A0EB0C0022FA03F39B
:1012C00002FA0CF241EA030100F10100704720F03C
:1012D0007F4C80EA030023F07F47ACEB070303F564
:1012E0007C5300F0004003F1FF032DE980494FEAF1
:1012F000154B09B44FEA144325EA0B4E24EA034880
:101300000FF2042606EB132749083E785FEA320203
:1013100003FB0667C7F5000707FB06F64FEA5437DD
:101320004FEAD64606F1020607FB066CCCF1005CDC
:101330004FEA1C472CEA074C07FB06F40CFB06F5AA
:1013400004EB15464FEA961634BF00204FF00040DC
:101350004FEAD13706FB07FC4FEA1C4C0CFB0BF79E
:10136000D21B03FB0CF761EB07010CFB0EF7B0EB94
:10137000074072EB17420CFB08F734BFA2EB0742A1
:10138000B2EB074261EB17414FEA0C444FEA910779
:1013900006FB07FC4FEA1C4C0CFB0BF7B0EBC740FD
:1013A00072EB573203FB0CF734BFA2EBC742B2EB30
:1013B000C74261EB57310CFB0EF7B0EBC70072EB85
:1013C00057720CFB08F734BFA2EBC702B2EBC7029F
:1013D00061EB5771039F4FEA816141EA921104EB7F
:1013E000CC044FEAD1374FEA826206FB07FC42EA9F
:1013F00090124FEA80604FEA1C4C0CFB0BF7D21B9B
:1014000003FB0CF761EB07010CFB0EF7B0EB074099
:1014100072EB17420CFB08F734BFA2EB0742B2EBAA
:10142000074261EB17414FEA8C554FEA910704EBF5
:101430009C2406FB07FC4FEA1C4C0CFB0BF7B0EBA3
:10144000C74072EB573203FB0CF734BFA2EBC74225
:10145000B2EBC74261EB57310CFB0EF7B0EBC700A4
:1014600072EB57720CFB08F734BFA2EBC702B2EB6A
:10147000C70261EB577115EB4C254FEA816141EAD8
:1014800092114FEA82624FEAD13742EA901206FB8C
:1014900007FC44F100044FEA80604FEA1C4C0CFB4F
:1014A0000BF7D21B03FB0CF761EB07010CFB0EF7EC
:1014B000B0EB074072EB17420CFB08F734BFA2EB0E
:1014C0000742B2EB074261EB174115EB1C154FEADF
:1014D000813141EA92414FEA823242EA90424FEA38
:1014E00080304FEA0C7644F1000448EA03434EEAA8
:1014F0000B484FF0000EB2EB080C71EB030724BF52
:10150000624639464EEB0E0E4FF0000B001852416A
:1015100049414BEB0B0BB2EB080C71EB03077BF172
:10152000000B24BF624639464EEB0E0E4FF0000B07
:101530000018524149414BEB0B0BB2EB080C71EB1D
:1015400003077BF1000B24BF624639464EEB0E0EBB
:1015500051EA020718BF46F0010616EB0E7655F168
:10156000000254F1000103D5BDE88901BDE80088FF
:10157000BDE88901BDE80048B619524141EB0101BF
:10158000A3F10103704780807F7E7D7C7B7A797830
:10159000777676757473727171706F6E6E6D6C6C38
:1015A0006B6A6A69686867666665646463636261DA
:1015B0006160605F5F5E5E5D5D5C5C5B5B5A5A595B
:1015C00059585857575656555555545453535252C7
:1015D0005251515050504F4F4F4E4E4D4D4D4C4C1F
:1015E0004C4B4B4B4A4A4A49494948484847474768
:1015F00047464646454545444444444343434342A5
:10160000424242414141002B9C4630D477002BD0CE
:101610001CB54FEA370703B44FF010004FF010012C
:10162000BAF1000F06D0BCF1000FDCBF40F008009B
:1016300040F008014FF000000FBCBDE810400BF176
:10164000010BBBF1010F08BF5FEA170722BF12F1C0
:10165000010211F101014FF0004143F1000300F0DC
:10166000004043EA00007047F9D35708D0E746EA44
:10167000064613F1400F4FEA16461FDD13F1200F07
:10168000DFBF16430A46002120335B42BED0C3F1C0
:10169000200746EA064602FA07F74FEA164646EAE8
:1016A0000706C3F1200722FA03F201FA07F721FA2D
:1016B00003F14FF0000342EA0702A7E746EA0206F9
:1016C00046EA06464FEA164646EA0106BCBF46EA27
:1016D0000646360C4FF000034FF000024FF00001B9
:1016E00094E72DE9804C9A46934670B491E838000F
:1016F00007C831EA400C48BF34EA430C03D5FFF772
:10170000E6FDFFF780FFF0BCBDE8008C2DE9804CC2
:101710009A46934670B491E8380007C810F0804F9D
:1017200008BF13F0804F03D100F005F8FFF76BFFFF
:10173000F0BCBDE8008C20F07F4780EA030023F076
:101740007F4C07EB0C03A3F57C5300F00040A3F1A2
:10175000FE0392F0000F00F0B38095F0000F00F050
:1017600077802DE901494FEA11404FEA144621EAFA
:10177000004800FB06FC24EA064708FB06F607FBC8
:1017800008F800FB07F718EB06484CEB164C4FEA3D
:10179000124B18EB07484FEA15464CEB174022EA6C
:1017A0000B4E0BFB06FC25EA06470EFB06F607FB75
:1017B0000EFE0BFB07F71EEB064E4CEB164C4FF0E4
:1017C00000061EEB074E4CEB174B18EB0B0840F1D5
:1017D000000018EB0E0B58EB000840F100008F1AC8
:1017E0004FF000013CBFC943661B14BFB5EB040CAE
:1017F00000213CBFC943F61B4FEA17444EEA8E0E48
:1018000027EA04454FEA1C4704FB07622CEA074C11
:1018100005FB07F70CFB05F604FB0CFC16EB074673
:1018200042EB174216EB0C4642EB1C421BEB060642
:1018300058EB0202414146EA9E0601D5BDE8018906
:10184000B619524141EB0101A3F10103BDE8018941
:101850004FEA14454FEA114724EA054621EA074CAE
:1018600005FB07F406FB07F70CFB06F105FB0CFC78
:1018700011EB074144EB17444FEA124711EB0C41BF
:1018800044EB1C4422EA074C05FB07F206FB07F772
:101890000CFB06F605FB0CFC16EB074642EB174269
:1018A00016EB0C4642EB1C456A1854F1000148BF88
:1018B0007047B619524141EB0101A3F10103704792
:1018C00095F0000F37D04FEA11424FEA144721EA52
:1018D000024624EA074C02FB07F106FB07F70CFB64
:1018E00006F402FB0CFC14EB074441EB17414FEAF2
:1018F000154714EB0C4441EB1C4125EA074C02FB55
:1019000007F506FB07F70CFB06F602FB0CFC16EBD3
:10191000074645EB174516EB0C4645EB1C421219E2
:1019200051F1000148BF7047B619524141EB010126
:10193000A3F1010370474FEA14454FEA114724EA27
:10194000054621EA074C05FB07F106FB07F70CFBF0
:1019500006F24FF0000605FB0CFC12EB074241EBD0
:10196000174112EB0C4251EB1C4148BF70479218D3
:1019700041EB0101A3F101037047000000B587B0FE
:1019800001214FF4027000F0C1FA0220ADF81800F6
:1019900000208DF81B0006A91B4800F065F94FF4E4
:1019A000004000F097FA002001908DF808008DF8B3
:1019B00009004FF4602003900020049001208DF86E
:1019C000140001A9114800F061F805230122092142
:1019D0000E4800F083F801210C4800F019F80B487C
:1019E00000F0D8F800BF094800F034F80028FAD118
:1019F000064800F0DFF800BF044800F014F80028A3
:101A0000FAD107B000BD0000000C014000240140E5
:101A100021B1826842F00102826003E0826822F014
:101A2000010282607047014600208A6802F00402C9
:101A30000AB1012000E0002070470146C86C80B266
:101A400070470246002013680B400BB1012000E0F4
:101A500000207047014600208A6802F008020AB19F
:101A6000012000E00020704710B50121064800F079
:101A700096F800BF02210448FFF7E3FF0028F9D0E1
:101A80000148FFF7DAFF10BD0024014030B50246DF
:101A90000020002350680F4C20400D790C6844EA68
:101AA00005242043506090680B4C2040D1E902543B
:101AB0002C434D7944EA450420439060D06A20F4D9
:101AC00070000C7C641EE4B2234340EA0350D062F1
:101AD00030BD0000FFFEF0FFFDF7F1FFF0B504465A
:101AE0000D4600200021092D11DDE068A5F10A0650
:101AF00006EB4607072606FA07F18843A5F10A0612
:101B000006EB460603FA06F10843E0600CE02069A4
:101B100005EB4507072606FA07F1884305EB45065E
:101B200003FA06F108432061072A0FDA606B561E9C
:101B300006EB86071F2606FA07F18843561E06EBBA
:101B4000860605FA06F10843606322E00D2A0FDAE3
:101B5000206BD61F06EB86071F2606FA07F188437F
:101B6000D61F06EB860605FA06F10843206310E04F
:101B7000E06AA2F10D0606EB86071F2606FA07F1BA
:101B80008843A2F10D0606EB860605FA06F1084326
:101B9000E062F0BD816841F008018160704721B1C9
:101BA000826842F4A002826003E0826822F4A0020C
:101BB00082607047816841F004018160704700BF16
:101BC000FEE730B587B004460D460121084600F017
:101BD0008DF9ADF81440ADF810500020ADF81600A6
:101BE000ADF8120004A94FF0804000F0EDFB70202A
:101BF000ADF800000120ADF80200601C00EBD071D0
:101C0000C1F34F01ADF806100020ADF80800694699
:101C10004FF0804000F08CFB0821C80600F0C6FBA6
:101C20000121880700F077FB07B030BD7047000046
:101C300008B50121092000F069F90121084800F0E8
:101C40009FF84FF40060ADF8000018208DF80300F5
:101C500003208DF802006946024800F005F808BD2F
:101C600000031800000C01402DE9F0410246002558
:101C70000026002000230024002791F803C00CF068
:101C80000F0591F803C00CF0100CBCF1000F03D04D
:101C900091F802C04CEA050591F800C0BCF1000FB4
:101CA00031D0146800202BE04FF0010C0CFA00F347
:101CB000B1F800C00CEA03069E4220D183004FF029
:101CC0000F0C0CFA03F7BC4305FA03FC4CEA0404BE
:101CD00091F803C0BCF1280F06D14FF0010C0CFAAB
:101CE00000FCC2F814C00AE091F803C0BCF1480F30
:101CF00005D14FF0010C0CFA00FCC2F810C0401CDA
:101D00000828D1D31460B1F800C0BCF1FF0F34DD56
:101D1000546800202EE000F1080C4FF0010808FA8A
:101D20000CF3B1F800C00CEA03069E4221D18300F7
:101D30004FF00F0C0CFA03F7BC4305FA03FC4CEA16
:101D4000040491F803C0BCF1280F05D100F1080C80
:101D500008FA0CF8C2F8148091F803C0BCF1480FDF
:101D600007D100F1080C4FF0010808FA0CF8C2F88E
:101D70001080401C0828CED35460BDE8F0810000DC
:101D8000F0B50A46002300240021002500F000469B
:101D9000B6F1004F02D11D4EF16901E01B4E716892
:101DA000C0F3034583B200F44016B6F5401F08D1D6
:101DB00021F07061154E766826F07066134F7E60D4
:101DC00012E000F48016B6F5801F06D1032606FA4D
:101DD00005F4A14341F0706106E0460D360103FAB7
:101DE00006F6B14341F0706122B1460D360103FAA7
:101DF00006F6314300F00046B6F1004F02D1034E23
:101E0000F16101E0014E7160F0BD00000000014091
:101E1000F0B508B101B102B9F0BD094C068D751CD1
:101E2000868D731C05FB03F6B4FBF6F60E60B0F866
:101E3000406064277E43B6FBF3F6167000BFEBE705
:101E400000A24A0400BFFEE700BFFEE770470000A3
:101E500070B5002100230F22C47804B3154C246808
:101E600004F4E064C4F5E064210AC1F10403CA404B
:101E7000447804FA03F184781440214309010E4C9C
:101E80000678A155047804F01F050124AC400578BC
:101E90006D11AD0005F1E025C5F8004109E00478B9
:101EA00004F01F050124AC40044D0678761145F876
:101EB000264070BD0CED00E000E400E080E100E0B1
:101EC00010B5044622460C214FF0804000F014FA71
:101ED00010BD704701460020034A506820F440407E
:101EE00008435060704700000010024029B1064AC4
:101EF000D2690243044BDA6104E0034AD2698243A7
:101F0000014BDA61704700000010024029B1064A17
:101F100092690243044B9A6104E0034A9269824346
:101F2000014B9A61704700000010024010B500F0AC
:101F300023F84FF4803000F0D5F800F019F90128AB
:101F400015D14FF4E011000400F0F8F8012000F082
:101F5000EFF800BF392000F09FF80028FAD00220E7
:101F600000F0FAF800BF00F0B5F80828FBD1012115
:101F70000846FFF7CBFF10BD0F48006840F0010096
:101F80000D490860084640680C4908400A49486005
:101F9000084600680A490840074908600846006882
:101FA00020F4802008600846406820F4FE00486065
:101FB0004FF41F0088607047001002400000FFF8D7
:101FC000FFFFF6FE30B500210022002400232D4D36
:101FD0006D6805F00C0121B1042905D0082923D131
:101FE00005E0294D056022E0274D05601FE0254DE5
:101FF0006D6805F47012234D6D6805F48034022578
:1020000005EB92421CB9214D554305600BE01D4D77
:102010006D6805F400351DB11C4D5543056002E0A7
:10202000194D5543056002E0174D056000BF00BF24
:10203000144D6D6805F0F0010909154D6B5C0568DC
:10204000DD4045600F4D6D6805F4E061090A104DF3
:102050006B5C4568DD4085600A4D6D6805F4605134
:10206000C90A0B4D6B5C4568DD40C560054D6D6868
:1020700005F44041890B074D6B5CC568B5FBF3F572
:10208000056130BD0010024000127A0000093D00D9
:10209000000000201000002010B50146002200239F
:1020A00000204A11012A02D1094C236806E0022AC5
:1020B00002D1074C236A01E0054C636A01F01F025C
:1020C000012494401C400CB1012000E0002010BD10
:1020D000001002400248406800F00C007047000009
:1020E000001002401149096821F480310F4A116043
:1020F0001146096821F480211160B0F5803F03D0BA
:10210000B0F5802F0ED106E00849096841F480310E
:10211000064A116007E00549096841F4A021034A15
:10212000116000E000BF00BF7047000000100240D7
:102130000149086670470000000042420246002044
:10214000044B586820F47C1042EA01031843014B09
:10215000586070470010024001460020034A506852
:1021600020F0030008435060704700000010024058
:1021700038B5002000900024002500BF3120FFF773
:102180008BFF05460098401C00900098B0F5A06FAA
:1021900001D0002DF2D03120FFF77EFF08B10124DD
:1021A00000E00024204638BD704710B500F002F86A
:1021B00010BD00000CB5002001900090334800686D
:1021C00040F480303149086000BF3048006800F4B6
:1021D000003000900198401C0190009818B90198B7
:1021E000B0F5A06FF1D12948006800F4003010B1BB
:1021F0000120009001E0002000900098012843D1C8
:102200002348006840F01000214908600846006833
:1022100020F0030008600846006840F002000860F3
:102220001A484068194948600846406848600846AE
:10223000406840F4806048600846406820F47C10A4
:1022400048600846406840F4E81048600846006866
:1022500040F08070086000BF0C48006800F000701B
:102260000028F9D00948406820F003000749486079
:102270000846406840F00200486000BF03484068DC
:1022800000F00C000828F9D10CBD0000001002403D
:10229000002002407047000010B51348006840F06D
:1022A00001001149086008464068104908400E497D
:1022B0004860084600680E4908400B490860084617
:1022C000006820F4802008600846406820F4FE0082
:1022D00048604FF41F008860FFF767FF4FF0006011
:1022E0000449086010BD0000001002400000FFF823
:1022F000FFFFF6FE08ED00E030B5002301248C401E
:10230000A3B2048C9C430484048C02FA01F5ADB2A0
:102310002C43048430BD21B1028842F001020280C6
:1023200004E002884FF6FE731A40028070470000F6
:1023300070B5002200230024058C4EF6FF76354050
:102340000584038C8488828B48F6FF752A404FF6FB
:10235000FF452A400D884FF6FF7606EA05252A43F9
:102360004DF6FF752B400D8906EA05352B434D8848
:1023700006EA05352B430B4DA84202D00A4DA84270
:1023800008D14BF6FF752C408D894FF6FF7606EA93
:1023900085152C4384808283CD88A0F84050038427
:1023A00070BD0000002C0140003401400A460021AD
:1023B000818B4FF2FF7319404FF6FF7303EA02233C
:1023C0001943818370470000002202881D4B984208
:1023D0000ED01D4B98420BD0B0F1804F08D01B4B54
:1023E000984205D01A4B984202D01A4B984204D119
:1023F0004FF68F731A404B881A43174B984207D0F9
:10240000164B984204D04FF6FF431A40CB881A432C
:1024100002808B8883850B8803850A4B98420BD0FA
:10242000094B984208D00E4B984205D00D4B98426C
:1024300002D00D4B984201D10B7A0386012383828F
:1024400070470000002C01400034014000040040AF
:1024500000080040000C0040001000400014004044
:1024600000400140004401400048014010B540F2E6
:102470002551114800F082F8E0B10F4800F03AF918
:10248000C4B20E480068FF2807DA0C4801680068EB
:10249000401C0A4A10600A4844540A2C09D1002101
:1024A0000748064A1268815400F070FA0020034978
:1024B000086000BF10BD000000380140140000207B
:1024C0002000002010B586B00446012144F204002B
:1024D000FFF71CFD4FF40070ADF8140003208DF8D9
:1024E000160018208DF8170005A91C48FFF7BCFB43
:1024F0004FF48060ADF8140004208DF8170005A992
:102500001648FFF7B1FB25208DF8000003208DF859
:1025100001008DF8020001208DF803006846FFF7E6
:1025200097FC01940020ADF80800ADF80A00ADF862
:102530000C00ADF810000C20ADF80E0001A9084801
:1025400000F06CF8012240F22551054800F040F8F7
:102550000121034800F006F806B010BD0008014054
:102560000038014021B1828942F40052828104E0A6
:1025700082894DF6FF731A408281704770B502461A
:10258000002400230025002040F66A16B14200D145
:1025900000BFC1F3421501F01F03012606FA03F341
:1025A000012D02D19689334006E0022D02D1168A10
:1025B000334001E0968A33400C12012606FA04F4F7
:1025C0001688344013B10CB1012000E0002070BD2A
:1025D000F0B50346002400260025002040F66A17C7
:1025E000B94200D100BF1846C1F3421401F01F06E2
:1025F000012707FA06F5012C01D10C3004E0022C6A
:1026000001D1103000E014301AB107682F43076081
:1026100002E00768AF430760F0BD00002DE9F04716
:1026200086B005460E460024A24600BFA1460027FC
:10263000B08900B100BF2F462C8A4CF6FF700440D1
:10264000F08804432C82AC894EF6F3100440B08825
:1026500031890843718908430443AC81AC8A4FF641
:10266000FF400440B0890443AC8201A8FFF7AAFCF4
:102670001F48874202D1DDF810A001E0DDF80CA070
:10268000A88900F4004040B10AEBCA0000EB0A1030
:1026900031684900B0FBF1F807E00AEBCA0000EB33
:1026A0000A1031688900B0FBF1F86420B8FBF0F043
:1026B00004012009642101FB1089A88900F400406D
:1026C00040B1322000EBC900B0FBF1F000F0070090
:1026D000044308E0322000EB09106421B0FBF1F064
:1026E00000F00F0004432C8106B0BDE8F087000025
:1026F0000038014001468888C0F30800704700BFD9
:10270000FEE7490050EAC12018BF04204A0D18BF57
:1027100040F0010040F2FF72B2EB515F08BF40F0A1
:102720000200012808BF0520704700214FF07E50AD
:1027300000F048BC012100F02EBF0021084600F047
:1027400041BC30380A2801D2012070470020704770
:1027500000BF704770B50C46054600F008FC00F05D
:102760007040B0F1005F07D024F00040C0F1FF409E
:10277000C00F04BF204670BD284670BD70B50C4622
:10278000054600F0F4FB00F07040B0F1004F07D0B8
:1027900024F00040C0F1FF40C00F04BF204670BDD0
:1027A000284670BD00BF054A128802F04002002A88
:1027B000F9D0C2B2014B1B1D1A807047003801408E
:1027C0002DE9F0410026A0F50001B1F1FE4F7DD2C8
:1027D00000F500226FF07E0101EBE251C2F30254DA
:1027E00077184FF07E52A0EBC15602EB045557EA22
:1027F000040047D02946304600F028FB8046294691
:10280000304600F01FFE414600F0DCFB0546014665
:1028100000F01AFD8046454900F016FD444900F0DD
:1028200015FB06464146284600F00EFD314600F0F5
:102830000BFD0646384600F0A7FC07463D4900F070
:1028400003FD3D49794451F8241000F0FFFA314668
:1028500000F0FCFA06460121284600F09CFE3146B5
:1028600000F0F4FA05463846344900F0EDFC3449EE
:10287000794451F8241000F0E9FA2946BDE8F04106
:1028800000F0E4BA4FF07E51304600F0DBFD054623
:102890002C4900F0D9FC2C4900F0D8FA294600F068
:1028A000D3FC2A4900F0D2FA294600F0CDFC6FF0A3
:1028B000824100F0CBFA04462946084600F0C4FCE9
:1028C000214600F0C1FC0146284600E003E0BDE8D7
:1028D000F04100F0BBBA4FF07F42B2EB400F03D2A1
:1028E000BDE8F041FFF726BFB0F1FF4F08BFBDE8DC
:1028F000F081B0F1004F06D90120FDF798FEBDE848
:10290000F041FFF71ABF30F0004105D06FF0160616
:10291000172100F040FE5BE70220FDF788FEFFF77D
:1029200004FF80F00040BDE8F081000066F1CC3E7D
:10293000AAAA2A3FF4FD0538FC0D00000070313FC3
:10294000B00D000021ED423E0A1180BEC1ABAA3E8F
:10295000FFF7ECFAFFF76CF9FFF710F84FF461207E
:10296000FFF7B0FD012140F26710FFF72AF90020C0
:10297000FFF7A6FA02A0FDF741FC00BFFEE700004A
:10298000B3F5CABCBBAFCDEAB3C900002DE9F04F27
:1029900085B08146FFF768F80290029800F00CFCC1
:1029A00006466E4900F050FC05466D4900F00AFBF2
:1029B000044603AB04AA6BA14846FDF72BFD022891
:1029C00037D1039A642A01DC039A00E0FF22D1B2D6
:1029D000049A002A01DD049A01E04FF0FF3210460C
:1029E00000F044F90398642801DC039808E060488B
:1029F0000088642148430907898D491C90FBF1F048
:102A000005460498002801DD04980BE04FF0804053
:102A1000808D401C4FF08041098D491C4843554929
:102A200091FBF0F006462A46314653A0FDF7E6FB3F
:102A300092E004AA56A14846FDF7ECFC012808D113
:102A4000FF21049800F012F953A00499FDF7D6FB7A
:102A500082E004AA55A14846FDF7DCFC01280AD112
:102A60000498C1B24FF0FF3000F000F951A0049972
:102A7000FDF7C4FB70E054A14846FDF78FFD30B967
:102A80000120FFF71DFA53A0FDF7B8FB64E055A144
:102A90004846FDF783FD30B90020FFF711FA54A036
:102AA000FDF7ACFB58E056A14846FDF777FD60B94D
:102AB0006A4601A94FF08040FFF7AAF99DF800206F
:102AC00052A00199FDF79AFB46E057A14846FDF751
:102AD00065FD00283DD12149204600F081FC05D844
:102AE00055A0FDF78BFB05B0BDE8F08F21461B48D4
:102AF00000F0A8FC07462146534800F0A5FB80469D
:102B0000394600F05FFA05464F49284600F05AFA68
:102B10000190FFF755FE83464C4900F095FB804637
:102B20004B4900F093F9074639464FF07E5000F0CC
:102B300049FA06464749304600F084FC8246504632
:102B400000F058F907463A460B4643A0FDF756FBFE
:102B500002E04548FDF752FB00BFC4E73333534062
:102B600000F07F4550574D2025642025640000006B
:102B70004000004000A24A0450574DC9E8D6C3A304
:102B8000BA2564487A20256425250D0A0000000036
:102B90004652455120256400C6B5C2CAB8FCD0C211
:102BA000A3BA2564487A0D0A000000004455545920
:102BB00020256400D5BCBFD5B1C8B8FCD0C2A3BA2B
:102BC000256425250D0A000050574D5F4F4E0D0A14
:102BD0000000000050574DCAE4B3F6D2D1BCA4BBEC
:102BE000EE0D0A0050574D5F4F46460D0A0000009B
:102BF00050574DCAE4B3F6D2D1CDA3D6B90D0A00D1
:102C000050574D5F51554552590D0A00B5B1C7B0E7
:102C100050574DB2CECAFDA3BA256C75487A20250F
:102C20006425250D0A00000054454D505F5155455F
:102C300052590D0A00000000B5E7D1B9B3ACC1BFCD
:102C4000B3CCA3A10D0A000000401C462CBB843964
:102C50000FCF5B3B33938843CEC2B6C8A3BA252EB1
:102C60003166A1E60D0A0000F83600082DE9FF5F85
:102C700005460E464FF08040B0F8288008F101006C
:102C8000404991FBF0F003904805848D3E48078849
:102C9000681C00284BD04FF6FF700290284600F0C9
:102CA0008BFA4FF07E510090FFF754FD8346039856
:102CB00000F082FA5946019000F084F982464FF004
:102CC0007E5100F0BFFB814600F03EFA04460298B8
:102CD00000F072FA8246204600F06EFA83465146B2
:102CE000FFF74CFD814600F02FFA0446642078433C
:102CF0004FF08041898D491CB0FBF1F000BF304698
:102D000000F05AFA21490090FFF738FD8346601C15
:102D100000F052FA5946019000F096FA82461B499B
:102D200000F050F9814600F00FFA074600BFFF2E71
:102D30000ED0304600F040FA82461449FFF71EFDDF
:102D4000814600F001FA611C48436421B0FBF1F7B1
:102D50004FF08040008820F001004FF08041088053
:102D6000681C00B18C8508490F800806808A40F0F5
:102D70000100090688820846008840F001000880AA
:102D8000BDE8FF9F00A24A04400000400000C84286
:102D900010B500290AD00878002807D005487844E3
:102DA000FDF7FCFB002801D0002010BD024878444C
:102DB00010BD0000160A00000E0A000010B5002920
:102DC0000AD00878002807D005487844FDF7E6FBCC
:102DD000002801D0002010BD0248784410BD00003A
:102DE000060A0000FE0900000808A0F500114FEADD
:102DF0003101704743004FEAD30C4FEA3C0C43408B
:102E00001FBF40070CF1605113F0FE4F70471CF0DC
:102E1000006F03D100200CF0004170470CF000431C
:102E200043EA507010B540EACC0000F08EFA00BFC3
:102E3000000000924FEA0001FFF7D6BF4FF00041BB
:102E40004FF00000A1F500217047000090EA010F4B
:102E500048BF81F0004100F1FC82421A3CBF801A59
:102E600089184FEAD0524FF07F4C1CEA410FA2EB79
:102E7000D15318BF9CEA026F00F03B804FF0004C2A
:102E80004CEA00204CEA012121FA03FC10EB0C0C67
:102E90001ED202F1FF325FEA1C2040EBC25038BF65
:102EA00070471CF07F0F4FEA400C18BFBCF17F4FFA
:102EB00038BF7047C3F12003994008BF20F00100DC
:102EC000BCF17F4F38BF7047A0F1C04000F083BA1B
:102ED0004FEA3C00000A40EBC25028BF1CF0FF0F35
:102EE0004FEA400CE6D018BFBCF17F4F38BF7047A7
:102EF000EAE79CEA026F05D010EA5C0F08BF00F019
:102F00000040704710B500F020FA00BF64FBBE3EE1
:102F1000014800F00EBB00BF0000C07F50EA010C6A
:102F200000F113801CF5000F58BFBCF5000F01D451
:102F30008842704707D710F5000F58BF11F5000FF2
:102F400022D488427047894270471CF5000F04D58F
:102F5000BCF5000FF7D5814270474FF0807C1CEB29
:102F6000400F38BF1CEB410F0ED28142704710B5A5
:102F7000FFF7D4FFEFF3008020F0104038BF40F09F
:102F8000004080F3008810BDBDE8104010B500F08F
:102F9000DCF900BF0000000900F007B84FF0404026
:102FA00010F1004FEFF300807047401058BFC0F1A0
:102FB0004040491058BFC1F140418142EFF30080C9
:102FC000704700004FF47F0C1CEAD0121EBF1CEAB1
:102FD000D11392EA0C0F93EA0C0F00F0858090EA6F
:102FE000010F48BF42F4807240F4000C41F400002D
:102FF0002CF07F4120F07F4000B58142A2EB03021C
:103000000FF2081CACEB504EC0F100009EF800E03F
:103010004FEA4E0E00FB0EFC38BF49004FEA2C1C55
:1030200002F5FA020CFB0EF34FEACE1E4FEA112C0A
:103030004FEAC1210EEB635E42EB22420EFB0CFC19
:103040004FEA1C5300FB03114FEA112C4FEA0131E8
:103050000EFB0CFC4FEADC4C00FB0C11C14228BFFC
:1030600009184CEB03335DF804EB10EB410143EB23
:10307000C250B2F57C0F38BF704729D512F0F00F5F
:103080001CBF00F1C04000F0004070470081828307
:103090008485868788898B8C8D8E8F919293959667
:1030A00097999A9C9D9FA0A2A3A5A7A8AAACAEB0F1
:1030B000B2B3B5B7B9BCBEC0C2C5C7C9CCCED1D4F6
:1030C000D7D9DCDFE2E6E9ECF0F3F7FAFE00000026
:1030D0004FEA400C0CF1807CBCF17E4F28BF70475A
:1030E000B0F1C04000F077B990EA010F0CEAD113BB
:1030F00048BF42F48072624538BF634507D213F47B
:103100007F0F16D080EA010000F00040704710B534
:1031100000F01BF9097EFC3E00F005B880EA0100D2
:1031200000F00040704780EA010000F0004000F02D
:1031300052B912F47F0F04BF0248704780EA0100C1
:1031400000F049B90000C07FC10DD1F19E0206DB3D
:103150004FEA002343F0004323FA02F07047004295
:1031600007D54FEA4001B1F1FE4F02D24FF0000007
:10317000704710B500F0E9F84992248000207047AC
:103180006FEA20007047000010F0004148BF404245
:10319000B0FA80F310FA03F2C3F19D030BD051EAA9
:1031A000C35101EB1220530638BF704700F10100F4
:1031B00008BF20F001007047B0FA80F310FA03F264
:1031C000C3F19D030AD0D90501EB1220530638BF85
:1031D000704700F1010008BF20F0010070470000B7
:1031E00050EA010C00F113801CF5000F58BFBCF52C
:1031F000000F01D48842704707D710F5000F58BF61
:1032000011F5000F15D488427047894270471CF5AC
:10321000000F04D5BCF5000FF7D5814270474FF081
:10322000807C1CEB400F38BF1CEB410F01D2814268
:10323000704710B500F089F8922449004FF0005013
:103240004FF08051FFF7B1BE4FF47F0C1CEAD01253
:103250001EBF1CEAD11392EA0C0F93EA0C0F00F088
:10326000478090EA010F48BF42F480724FF0004C53
:103270004CEA00204CEA012102EB0302A0FB0113FF
:10328000A2F50002002918BF43F001035B0028BF2C
:103290004FEA330342EB22425FEA132C4CEBC2505D
:1032A0002EBFBCEB436FB2F57C0F70474FEA036C47
:1032B000BCF1004F08BF20F00100B2F57C0F38BF11
:1032C00070470BD582F0FF0212F5803FC8BF7047F0
:1032D00000F1C040D8BF00F00040704700F5000C7E
:1032E0005FEA4C0C48BF7047B0F1C04000F073B8C3
:1032F00090EA010F0CEAD11348BF42F48072624594
:1033000038BF634504D280EA010000F000407047F6
:1033100010B500F01AF800BF8900013E00F007B8B0
:1033200000F009B85FEA410C5FEA1C6C08D080EA43
:10333000010000F050B85FEA400C5FEA1C6CF6D167
:103340004FF00040A0F5800070470EF1020E2EF005
:10335000030E5EF8044B244204D44FEA4102B2F15A
:103360007F4F11D84FEA4003B3F17F4F0CD80ED1F5
:103370004FEAD07CB2F17F4F0CEB4C0C0CF1020CFD
:1033800008BF4CEBD17C04E04FF0080C01E04FEAA1
:10339000D17C0CEB4C0324FA03F404F00704B4F1E1
:1033A000040C06D20EEB840CBDE810404CF0010C6E
:1033B0006047DFE80CF0070802024FF00040A0F57C
:1033C000800010BD0846420018BFD2F1807288BF4D
:1033D00000F0004010BDFF2141EAD050C005704709
:1033E00051EA000C00F113801CF5000F58BFBCF52A
:1033F000000F01D48142704707D711F5000F58BF65
:1034000010F5000F15D481427047894270471CF5B2
:10341000000F04D5BCF5000FF7D5884270474FF078
:10342000807C1CEB410F38BF1CEB400F01D288425F
:10343000704780EA010081EA000180EA0100FFF79D
:10344000F8BE000090EA010F48BF81F000413FF54F
:1034500004AD421A04D882F00042A0EB02001144ED
:103460004FEAD0524FF07F4C1CEA410FA2EBD153F0
:1034700018BF9CEA026F4AD04FF0004C4CEA002083
:103480004CEA012121FA03FCB0EB0C0C0FD412F032
:10349000FE0F36D05FEA4C001DD5001240EBC25043
:1034A00038BF70471CF03F0F18BF70470BE0A2F108
:1034B00001025FEA1C2040EBC25038BF70471CF08D
:1034C0007F0F18BF7047C3F12003994014BF401EFF
:1034D00020F00100704780084FEA122308BF7047B0
:1034E000B0FA80FCA2EB0C02CCF1280C60FA0CF0D4
:1034F00093EA122F04BF00EBC25070474FEAC3702B
:103500007047130A5FEADC1008BF7047F6E79CEAD1
:10351000026F04D010EA5C0F08BF0020704710B59E
:10352000FFF713FF40DFF63E81F000407047FDF7E4
:10353000B6B90CF00F03092B08BF082000F051802A
:103540000A2B0BD0082B18BF704708BF1CF0400F88
:103550000AD04FF000004FF0000170471CF0400F00
:1035600018BF4FF0004070471CF0100F08D020F03B
:10357000704300F07F4242EAD3014FEA4370704744
:1035800000F0604021F07F4242EA000201F07F40FB
:1035900040EA727070474FF0FF0212EAD0521CBF2F
:1035A00092F0FF038B42C2BFD14200EBC150704783
:1035B000002A0AD0002B0BD0002900F00040A4BF45
:1035C00040F0FE4040F40000704700F000407047BB
:1035D00043024FF00B0C18BF4CF0806C7FF498AC9A
:1035E00070471CF4801F11D01CF4E02F03D06FEA49
:1035F000CC31490070474FF04050EFF3008222F089
:10360000704242EA000282F3008870474FF00000E7
:1036100070470400000800000000000000020001E4
:1036200000001000000000000030F13D0070643E1A
:103630000000A33E0090CF3E0090F83E00400F3FB8
:1036400000E0203F0000000015B78337CDE37B3852
:103650000EE1C53860F69138AF5F0F38E1BC3E38F7
:1036600023F4473902400000000000A000000000E1
:1036700005400000000000C8000000000C400000F1
:103680000000409C00000000194000000020BCBE6B
:103690000000000034400000BFC91B8E0000000481
:1036A000B5400000504BCFD06607E2CF01000000CC
:1036B0006C4100003E8251AADFEEA73401000000F9
:1036C000D9420000DCB5A0E23A301F97FFFFFFFFB0
:1036D000B4450000FD25A0C8E9A3C14FFFFFFFFFCF
:1036E000FF3F00000000008000000000FF3F0000DE
:1036F0000000008000000000CEDED0A7C3FCC1EEB9
:10370000B8F1CABDA3A1D6A7B3D6B8F1CABDA3BAB2
:103710000D0A54454D505F515545525909B2E9D1F2
:10372000AFCEC2B6C80D0A50574D5F5155455259DC
:1037300009B2E9D1AF50574DB2CECAFD0D0A46527B
:103740004551203130303009C9E8D6C3C6B5C2CAA8
:1037500028353932487A7E33364D487A290D0A4465
:103760005554592035300909C9E8D6C3D5BCBFD551
:10377000B1C828302D3130302525290D0A50574D3C
:10378000203130303020353009CDACCAB1C9E8D64F
:10379000C30D0A00E03800080000002020000000EF
:1037A0002801000800390008200000202808000037
:1037B000440100081C00000043000000F8FFFFFF68
:1037C0000C0000000E0000000F0000002E000000A2
:1037D0001001000043000000F8FFFFFF00404040E0
:1037E00040404040404041414141414040404040D4
:1037F0004040404040404040404040404005020280
:10380000020202020202020202020202022020203E
:10381000202020202020200202020202020290909A
:103820009090909010101010101010101010101098
:1038300010101010101010100202020202028888EC
:1038400088888888080808080808080808080808F8
:1038500008080808080808080202020240000000E0
:103860000000000000000000000000000000000058
:103870000000000000000000000000000000000048
:103880000000000000000000000000000000000038
:103890000000000000000000000000000000000028
:1038A0000000000000000000000000000000000018
:1038B0000000000000000000000000000000000008
:1038C00000000000000000000000000000000000F8
:1038D00000000000000000000000000000000000E8
:1038E00000000000010203040102030406070809A6
:1038F00002040608000000000000000000000000B4
:04000005080001B935
:00000001FF
